{
  "address": "0xf7554dBFdf4633bB4b2c1E708945bB83c9071C12",
  "abi": [
    {
      "inputs": [],
      "stateMutability": "nonpayable",
      "type": "constructor"
    },
    {
      "inputs": [
        {
          "internalType": "address",
          "name": "receiver",
          "type": "address"
        }
      ],
      "name": "ERC20InvalidReceiver",
      "type": "error"
    },
    {
      "inputs": [
        {
          "internalType": "address",
          "name": "sender",
          "type": "address"
        }
      ],
      "name": "ERC20InvalidSender",
      "type": "error"
    },
    {
      "inputs": [],
      "name": "FHERC20IncompatibleFunction",
      "type": "error"
    },
    {
      "inputs": [
        {
          "internalType": "address",
          "name": "holder",
          "type": "address"
        },
        {
          "internalType": "address",
          "name": "spender",
          "type": "address"
        }
      ],
      "name": "FHERC20UnauthorizedSpender",
      "type": "error"
    },
    {
      "inputs": [
        {
          "internalType": "euint64",
          "name": "value",
          "type": "uint256"
        },
        {
          "internalType": "address",
          "name": "caller",
          "type": "address"
        }
      ],
      "name": "FHERC20UnauthorizedUseOfEncryptedAmount",
      "type": "error"
    },
    {
      "inputs": [
        {
          "internalType": "uint8",
          "name": "got",
          "type": "uint8"
        },
        {
          "internalType": "uint8",
          "name": "expected",
          "type": "uint8"
        }
      ],
      "name": "InvalidEncryptedInput",
      "type": "error"
    },
    {
      "inputs": [
        {
          "internalType": "address",
          "name": "owner",
          "type": "address"
        }
      ],
      "name": "OwnableInvalidOwner",
      "type": "error"
    },
    {
      "inputs": [
        {
          "internalType": "address",
          "name": "account",
          "type": "address"
        }
      ],
      "name": "OwnableUnauthorizedAccount",
      "type": "error"
    },
    {
      "inputs": [
        {
          "internalType": "int32",
          "name": "value",
          "type": "int32"
        }
      ],
      "name": "SecurityZoneOutOfBounds",
      "type": "error"
    },
    {
      "anonymous": false,
      "inputs": [
        {
          "indexed": true,
          "internalType": "address",
          "name": "from",
          "type": "address"
        },
        {
          "indexed": true,
          "internalType": "address",
          "name": "to",
          "type": "address"
        },
        {
          "indexed": false,
          "internalType": "uint256",
          "name": "value",
          "type": "uint256"
        }
      ],
      "name": "ConfidentialTransfer",
      "type": "event"
    },
    {
      "anonymous": false,
      "inputs": [
        {
          "indexed": true,
          "internalType": "address",
          "name": "oldController",
          "type": "address"
        },
        {
          "indexed": true,
          "internalType": "address",
          "name": "newController",
          "type": "address"
        }
      ],
      "name": "ControllerUpdated",
      "type": "event"
    },
    {
      "anonymous": false,
      "inputs": [
        {
          "indexed": true,
          "internalType": "address",
          "name": "holder",
          "type": "address"
        },
        {
          "indexed": true,
          "internalType": "address",
          "name": "operator",
          "type": "address"
        },
        {
          "indexed": false,
          "internalType": "uint48",
          "name": "until",
          "type": "uint48"
        }
      ],
      "name": "OperatorSet",
      "type": "event"
    },
    {
      "anonymous": false,
      "inputs": [
        {
          "indexed": true,
          "internalType": "address",
          "name": "previousOwner",
          "type": "address"
        },
        {
          "indexed": true,
          "internalType": "address",
          "name": "newOwner",
          "type": "address"
        }
      ],
      "name": "OwnershipTransferred",
      "type": "event"
    },
    {
      "inputs": [
        {
          "internalType": "address",
          "name": "",
          "type": "address"
        },
        {
          "internalType": "address",
          "name": "",
          "type": "address"
        }
      ],
      "name": "allowance",
      "outputs": [
        {
          "internalType": "uint256",
          "name": "",
          "type": "uint256"
        }
      ],
      "stateMutability": "pure",
      "type": "function"
    },
    {
      "inputs": [
        {
          "internalType": "address",
          "name": "",
          "type": "address"
        },
        {
          "internalType": "uint256",
          "name": "",
          "type": "uint256"
        }
      ],
      "name": "approve",
      "outputs": [
        {
          "internalType": "bool",
          "name": "",
          "type": "bool"
        }
      ],
      "stateMutability": "pure",
      "type": "function"
    },
    {
      "inputs": [
        {
          "internalType": "address",
          "name": "account",
          "type": "address"
        }
      ],
      "name": "balanceOf",
      "outputs": [
        {
          "internalType": "uint256",
          "name": "",
          "type": "uint256"
        }
      ],
      "stateMutability": "view",
      "type": "function"
    },
    {
      "inputs": [],
      "name": "balanceOfIsIndicator",
      "outputs": [
        {
          "internalType": "bool",
          "name": "",
          "type": "bool"
        }
      ],
      "stateMutability": "view",
      "type": "function"
    },
    {
      "inputs": [
        {
          "internalType": "address",
          "name": "account",
          "type": "address"
        }
      ],
      "name": "confidentialBalanceOf",
      "outputs": [
        {
          "internalType": "euint64",
          "name": "",
          "type": "uint256"
        }
      ],
      "stateMutability": "view",
      "type": "function"
    },
    {
      "inputs": [
        {
          "internalType": "address",
          "name": "from",
          "type": "address"
        },
        {
          "internalType": "euint64",
          "name": "value",
          "type": "uint256"
        }
      ],
      "name": "confidentialBurnFromController",
      "outputs": [
        {
          "internalType": "euint64",
          "name": "burned",
          "type": "uint256"
        }
      ],
      "stateMutability": "nonpayable",
      "type": "function"
    },
    {
      "inputs": [
        {
          "internalType": "address",
          "name": "to",
          "type": "address"
        },
        {
          "internalType": "euint64",
          "name": "value",
          "type": "uint256"
        }
      ],
      "name": "confidentialMintFromController",
      "outputs": [
        {
          "internalType": "euint64",
          "name": "minted",
          "type": "uint256"
        }
      ],
      "stateMutability": "nonpayable",
      "type": "function"
    },
    {
      "inputs": [],
      "name": "confidentialTotalSupply",
      "outputs": [
        {
          "internalType": "euint64",
          "name": "",
          "type": "uint256"
        }
      ],
      "stateMutability": "view",
      "type": "function"
    },
    {
      "inputs": [
        {
          "internalType": "address",
          "name": "to",
          "type": "address"
        },
        {
          "components": [
            {
              "internalType": "uint256",
              "name": "ctHash",
              "type": "uint256"
            },
            {
              "internalType": "uint8",
              "name": "securityZone",
              "type": "uint8"
            },
            {
              "internalType": "uint8",
              "name": "utype",
              "type": "uint8"
            },
            {
              "internalType": "bytes",
              "name": "signature",
              "type": "bytes"
            }
          ],
          "internalType": "struct InEuint64",
          "name": "inValue",
          "type": "tuple"
        }
      ],
      "name": "confidentialTransfer",
      "outputs": [
        {
          "internalType": "euint64",
          "name": "transferred",
          "type": "uint256"
        }
      ],
      "stateMutability": "nonpayable",
      "type": "function"
    },
    {
      "inputs": [
        {
          "internalType": "address",
          "name": "to",
          "type": "address"
        },
        {
          "internalType": "euint64",
          "name": "value",
          "type": "uint256"
        }
      ],
      "name": "confidentialTransfer",
      "outputs": [
        {
          "internalType": "euint64",
          "name": "transferred",
          "type": "uint256"
        }
      ],
      "stateMutability": "nonpayable",
      "type": "function"
    },
    {
      "inputs": [
        {
          "internalType": "address",
          "name": "to",
          "type": "address"
        },
        {
          "internalType": "euint64",
          "name": "value",
          "type": "uint256"
        },
        {
          "internalType": "bytes",
          "name": "data",
          "type": "bytes"
        }
      ],
      "name": "confidentialTransferAndCall",
      "outputs": [
        {
          "internalType": "euint64",
          "name": "transferred",
          "type": "uint256"
        }
      ],
      "stateMutability": "nonpayable",
      "type": "function"
    },
    {
      "inputs": [
        {
          "internalType": "address",
          "name": "to",
          "type": "address"
        },
        {
          "components": [
            {
              "internalType": "uint256",
              "name": "ctHash",
              "type": "uint256"
            },
            {
              "internalType": "uint8",
              "name": "securityZone",
              "type": "uint8"
            },
            {
              "internalType": "uint8",
              "name": "utype",
              "type": "uint8"
            },
            {
              "internalType": "bytes",
              "name": "signature",
              "type": "bytes"
            }
          ],
          "internalType": "struct InEuint64",
          "name": "inValue",
          "type": "tuple"
        },
        {
          "internalType": "bytes",
          "name": "data",
          "type": "bytes"
        }
      ],
      "name": "confidentialTransferAndCall",
      "outputs": [
        {
          "internalType": "euint64",
          "name": "transferred",
          "type": "uint256"
        }
      ],
      "stateMutability": "nonpayable",
      "type": "function"
    },
    {
      "inputs": [
        {
          "internalType": "address",
          "name": "from",
          "type": "address"
        },
        {
          "internalType": "address",
          "name": "to",
          "type": "address"
        },
        {
          "components": [
            {
              "internalType": "uint256",
              "name": "ctHash",
              "type": "uint256"
            },
            {
              "internalType": "uint8",
              "name": "securityZone",
              "type": "uint8"
            },
            {
              "internalType": "uint8",
              "name": "utype",
              "type": "uint8"
            },
            {
              "internalType": "bytes",
              "name": "signature",
              "type": "bytes"
            }
          ],
          "internalType": "struct InEuint64",
          "name": "inValue",
          "type": "tuple"
        }
      ],
      "name": "confidentialTransferFrom",
      "outputs": [
        {
          "internalType": "euint64",
          "name": "transferred",
          "type": "uint256"
        }
      ],
      "stateMutability": "nonpayable",
      "type": "function"
    },
    {
      "inputs": [
        {
          "internalType": "address",
          "name": "from",
          "type": "address"
        },
        {
          "internalType": "address",
          "name": "to",
          "type": "address"
        },
        {
          "internalType": "euint64",
          "name": "value",
          "type": "uint256"
        }
      ],
      "name": "confidentialTransferFrom",
      "outputs": [
        {
          "internalType": "euint64",
          "name": "transferred",
          "type": "uint256"
        }
      ],
      "stateMutability": "nonpayable",
      "type": "function"
    },
    {
      "inputs": [
        {
          "internalType": "address",
          "name": "from",
          "type": "address"
        },
        {
          "internalType": "address",
          "name": "to",
          "type": "address"
        },
        {
          "internalType": "euint64",
          "name": "value",
          "type": "uint256"
        },
        {
          "internalType": "bytes",
          "name": "data",
          "type": "bytes"
        }
      ],
      "name": "confidentialTransferFromAndCall",
      "outputs": [
        {
          "internalType": "euint64",
          "name": "transferred",
          "type": "uint256"
        }
      ],
      "stateMutability": "nonpayable",
      "type": "function"
    },
    {
      "inputs": [
        {
          "internalType": "address",
          "name": "from",
          "type": "address"
        },
        {
          "internalType": "address",
          "name": "to",
          "type": "address"
        },
        {
          "components": [
            {
              "internalType": "uint256",
              "name": "ctHash",
              "type": "uint256"
            },
            {
              "internalType": "uint8",
              "name": "securityZone",
              "type": "uint8"
            },
            {
              "internalType": "uint8",
              "name": "utype",
              "type": "uint8"
            },
            {
              "internalType": "bytes",
              "name": "signature",
              "type": "bytes"
            }
          ],
          "internalType": "struct InEuint64",
          "name": "inValue",
          "type": "tuple"
        },
        {
          "internalType": "bytes",
          "name": "data",
          "type": "bytes"
        }
      ],
      "name": "confidentialTransferFromAndCall",
      "outputs": [
        {
          "internalType": "euint64",
          "name": "transferred",
          "type": "uint256"
        }
      ],
      "stateMutability": "nonpayable",
      "type": "function"
    },
    {
      "inputs": [],
      "name": "controller",
      "outputs": [
        {
          "internalType": "address",
          "name": "",
          "type": "address"
        }
      ],
      "stateMutability": "view",
      "type": "function"
    },
    {
      "inputs": [],
      "name": "decimals",
      "outputs": [
        {
          "internalType": "uint8",
          "name": "",
          "type": "uint8"
        }
      ],
      "stateMutability": "view",
      "type": "function"
    },
    {
      "inputs": [
        {
          "internalType": "address",
          "name": "to",
          "type": "address"
        },
        {
          "internalType": "uint64",
          "name": "value",
          "type": "uint64"
        }
      ],
      "name": "devMintPlain",
      "outputs": [
        {
          "internalType": "euint64",
          "name": "minted",
          "type": "uint256"
        }
      ],
      "stateMutability": "nonpayable",
      "type": "function"
    },
    {
      "inputs": [],
      "name": "indicatorTick",
      "outputs": [
        {
          "internalType": "uint256",
          "name": "",
          "type": "uint256"
        }
      ],
      "stateMutability": "view",
      "type": "function"
    },
    {
      "inputs": [],
      "name": "isFherc20",
      "outputs": [
        {
          "internalType": "bool",
          "name": "",
          "type": "bool"
        }
      ],
      "stateMutability": "pure",
      "type": "function"
    },
    {
      "inputs": [
        {
          "internalType": "address",
          "name": "holder",
          "type": "address"
        },
        {
          "internalType": "address",
          "name": "spender",
          "type": "address"
        }
      ],
      "name": "isOperator",
      "outputs": [
        {
          "internalType": "bool",
          "name": "",
          "type": "bool"
        }
      ],
      "stateMutability": "view",
      "type": "function"
    },
    {
      "inputs": [],
      "name": "name",
      "outputs": [
        {
          "internalType": "string",
          "name": "",
          "type": "string"
        }
      ],
      "stateMutability": "view",
      "type": "function"
    },
    {
      "inputs": [],
      "name": "owner",
      "outputs": [
        {
          "internalType": "address",
          "name": "",
          "type": "address"
        }
      ],
      "stateMutability": "view",
      "type": "function"
    },
    {
      "inputs": [],
      "name": "renounceOwnership",
      "outputs": [],
      "stateMutability": "nonpayable",
      "type": "function"
    },
    {
      "inputs": [],
      "name": "resetIndicatedBalance",
      "outputs": [],
      "stateMutability": "nonpayable",
      "type": "function"
    },
    {
      "inputs": [
        {
          "internalType": "address",
          "name": "newController",
          "type": "address"
        }
      ],
      "name": "setController",
      "outputs": [],
      "stateMutability": "nonpayable",
      "type": "function"
    },
    {
      "inputs": [
        {
          "internalType": "address",
          "name": "operator",
          "type": "address"
        },
        {
          "internalType": "uint48",
          "name": "until",
          "type": "uint48"
        }
      ],
      "name": "setOperator",
      "outputs": [],
      "stateMutability": "nonpayable",
      "type": "function"
    },
    {
      "inputs": [],
      "name": "symbol",
      "outputs": [
        {
          "internalType": "string",
          "name": "",
          "type": "string"
        }
      ],
      "stateMutability": "view",
      "type": "function"
    },
    {
      "inputs": [],
      "name": "totalSupply",
      "outputs": [
        {
          "internalType": "uint256",
          "name": "",
          "type": "uint256"
        }
      ],
      "stateMutability": "view",
      "type": "function"
    },
    {
      "inputs": [
        {
          "internalType": "address",
          "name": "",
          "type": "address"
        },
        {
          "internalType": "uint256",
          "name": "",
          "type": "uint256"
        }
      ],
      "name": "transfer",
      "outputs": [
        {
          "internalType": "bool",
          "name": "",
          "type": "bool"
        }
      ],
      "stateMutability": "pure",
      "type": "function"
    },
    {
      "inputs": [
        {
          "internalType": "address",
          "name": "",
          "type": "address"
        },
        {
          "internalType": "address",
          "name": "",
          "type": "address"
        },
        {
          "internalType": "uint256",
          "name": "",
          "type": "uint256"
        }
      ],
      "name": "transferFrom",
      "outputs": [
        {
          "internalType": "bool",
          "name": "",
          "type": "bool"
        }
      ],
      "stateMutability": "pure",
      "type": "function"
    },
    {
      "inputs": [
        {
          "internalType": "address",
          "name": "newOwner",
          "type": "address"
        }
      ],
      "name": "transferOwnership",
      "outputs": [],
      "stateMutability": "nonpayable",
      "type": "function"
    }
  ],
  "transactionHash": "0x1ebbe7db7472326a709a2397e7026469f3a92da08e423b23caa0af59eed601ff",
  "args": [],
  "numDeployments": 1,
  "solcInputHash": "fe2e5a65ddaec2b01c35c8b7505e16d2",
  "bytecode": "0x608034610342576040906001600160401b03908083018281118282101761026e578352601681526020917f436f6e666964656e7469616c2050617920546f6b656e00000000000000000000838301528351928484018481108382111761026e57855260059384815264464850415960d81b8282015283519183831161026e578554926001958685811c95168015610338575b83861014610250578190601f958681116102ec575b50839086831160011461028d575f92610282575b50505f19600383901b1c191690861b1786555b815193841161026e576006958654908682811c92168015610264575b838310146102505784821161020f575b5050809284116001146101ad57509282939183925f946101a2575b50501b915f199060031b1c19161781555b60ff1960075416176007556064600855331561018c5760098054336001600160a01b0319821681179092559151916001600160a01b03167f8be0079c531659141344cd1fd0a4f28419497f9722a3daafe3b4186f6b6457e05f80a3611db590816103478239f35b51631e4fbdf760e01b81525f6004820152602490fd5b015192505f80610114565b919083601f198116875f52845f20945f905b888383106101f557505050106101dd575b505050811b018155610125565b01515f1960f88460031b161c191690555f80806101d0565b8587015188559096019594850194879350908101906101bf565b875f52825f209085808801821c830193858910610247575b01901c019086905b82811061023c57506100f9565b5f815501869061022f565b93508293610227565b634e487b7160e01b5f52602260045260245ffd5b91607f16916100e9565b634e487b7160e01b5f52604160045260245ffd5b015190505f806100ba565b90889350601f198316918a5f52855f20925f5b878282106102d657505084116102be575b505050811b0186556100cd565b01515f1960f88460031b161c191690555f80806102b1565b8385015186558c979095019493840193016102a0565b909150885f52835f20868085018b1c82019286861061032f575b918a9186959493018c1c01915b8281106103215750506100a6565b5f81558594508a9101610313565b92508192610306565b94607f1694610091565b5f80fdfe608060409080825260049081361015610016575f80fd5b5f3560e01c90816306fdde0314610e5657508063095ea7b3146107ee57806318160ddd14610e2f57806323b872dd14610e14578063313ce56714610df3578063344ff10114610dbc578063365ac00214610840578063490690f314610d9e5780635409522714610d815780636e35447314610d2557806370a0823114610ce6578063715018a614610c8b5780637edb0e7d14610c225780638da5cb5b14610bfa57806392eefe9b14610b3f57806394e6eca2146109f657806395d89b41146108e35780639645edd414610845578063a415f26914610840578063a794ee95146107f3578063a9059cbb146107ee578063a9fe995914610769578063abcfb656146105bf578063b4b2019014610598578063b6363cf214610562578063ca49d7cd146104c1578063d174999a1461043c578063d4febb96146103b5578063dd62ed3e14610384578063f2fde38b146102f6578063f77c4791146102ce578063fca114d6146101f05763fe3f670d1461018b575f80fd5b346101ec57816003193601126101ec576101a3610f42565b602435916101b13384611390565b156101cb576020846101c485853361133b565b9051908152f35b8351630d5fdb3f60e41b815290810183815233602082015281906040010390fd5b5f80fd5b5090346101ec5760803660031901126101ec5761020b610f42565b610213610f58565b926001600160401b03906044358281116101ec57610234903690830161105c565b916064359081116101ec5761024c90369083016110ff565b5050610258338461119f565b156102a257509061029c60209461027b6102746101c49561120e565b828561133b565b9261029684610288611c69565b610290611cf0565b906117f3565b9161158e565b90611931565b835163d2251dd560e01b81526001600160a01b0384169181019182523360208301529081906040010390fd5b82346101ec575f3660031901126101ec57600a5490516001600160a01b039091168152602090f35b50346101ec5760203660031901126101ec57610310610f42565b906103196111e2565b6001600160a01b0391821692831561036e575050600954826bffffffffffffffffffffffff60a01b821617600955167f8be0079c531659141344cd1fd0a4f28419497f9722a3daafe3b4186f6b6457e05f80a3005b905f6024925191631e4fbdf760e01b8352820152fd5b5090346101ec57806003193601126101ec5761039e610f42565b506103a7610f58565b505163d411f9a960e01b8152fd5b82346101ec57806003193601126101ec576103ce610f42565b906024359065ffffffffffff82168092036101ec57335f526002602052805f209260018060a01b031692835f52602052805f208265ffffffffffff19825416179055519081527f921a218a75d18e8ec5704851e6b234a85725b21a2521ce889622c35dedc1fa1260203392a3005b5090346101ec5760603660031901126101ec57610457610f42565b6001600160401b0392906024358481116101ec57610478903690840161105c565b6044359485116101ec576104ac6104a561029c9261049e6101c4966020993691016110ff565b505061120e565b833361133b565b916104b983610288611c69565b90339061158e565b5090346101ec5760603660031901126101ec576104dc610f42565b6104e4610f58565b90604435936104f33386611390565b1561054157610502338361119f565b156105155750926101c49160209461133b565b835163d2251dd560e01b81526001600160a01b0390921690820190815233602082015281906040010390fd5b8351630d5fdb3f60e41b815290810185815233602082015281906040010390fd5b82346101ec57806003193601126101ec5760209061058f610581610f42565b610589610f58565b9061119f565b90519015158152f35b82346101ec575f3660031901126101ec57335f908152602081905220805461ffff19169055005b5090346101ec57806003193601126101ec576105d9610f42565b906024359260018060a01b036105f481600a54163314611153565b831690811561075357906106cb5f928284526106396020976001895261062a87872054828315610745575b811561073557611bf2565b90610633611cf0565b916117f3565b958385526001885261064e8787872054611931565b848652600189528686205584885261ffff61066d8188882054166119d4565b858752868a528787208261ffff19921682825416179055600354916106938184166119d4565b169116176003556106a5878354611931565b825583855260018852858520549081610708575b50506106c53387611b3b565b54611adc565b84828260085486519081527fdef6144e0f80e23ca465862f2f93a21f8526624729198aed904b46e005c943e4938491a3858451868152a351908152f35b61071461072e92611adc565b848652600189526107288188882054611b3b565b87611b3b565b5f806106b9565b905061073f611cf0565b90611bf2565b5061074e611cf0565b61061f565b6024905f845191634b637e8f60e11b8352820152fd5b5090346101ec5760603660031901126101ec57610784610f42565b91602435906044356001600160401b0381116101ec576107a790369083016110ff565b50506107b33383611390565b156107cd57508261029c6104ac6101c4936020963361133b565b9151630d5fdb3f60e41b815291820190815233602082015281906040010390fd5b610f6e565b5090346101ec57806003193601126101ec5761080d610f42565b602435906001600160401b0382116101ec576108396108346020956101c49436910161105c565b61120e565b903361133b565b610f9a565b5090346101ec5760803660031901126101ec57610860610f42565b610868610f58565b92604435906064356001600160401b0381116101ec5761088b90369083016110ff565b50506108973383611390565b156108c1576108a6338461119f565b156102a257509061029c8461027b6101c4946020978561133b565b8351630d5fdb3f60e41b81529081019182523360208301529081906040010390fd5b5090346101ec575f3660031901126101ec578051905f906006549160018360011c90600185169485156109ec575b60209586841081146109d9578388528794939291879082156109b757505060011461095c575b5050610958929161094991038561102d565b51928284938452830190610f1e565b0390f35b9085925060065f527ff652222313e28459528d920b65115c16c04f3efc82aaedc97be59f3f377c0d3f915f925b82841061099f5750505082010181610949610937565b8054848a018601528895508794909301928101610989565b60ff19168682015292151560051b850190920192508391506109499050610937565b602289634e487b7160e01b5f525260245ffd5b91607f1691610911565b5090346101ec57806003193601126101ec57610a10610f42565b91602435926001600160401b0384168094036101ec57610a2e6111e2565b6001600160a01b03811615610b29578251610a4881610ff7565b5f8152835192610a5784610fb5565b6003845260209560603688870137610a6e85611d62565b526005610a7a85611d6f565b52835160021015610b16579085915f6060860152610aa986519586938493631888debd60e01b85528401611bbf565b03815f73ea30c4b8b44078bbf8a6ef5b9f1ec1626c7848d95af1908115610b0c575f91610adb575b6101c49250611428565b90508382813d8311610b05575b610af2818361102d565b810103126101ec576101c4915190610ad1565b503d610ae8565b83513d5f823e3d90fd5b603290634e487b7160e01b5f525260245ffd5b505f602492519163ec442f0560e01b8352820152fd5b50346101ec5760203660031901126101ec57610b59610f42565b90610b626111e2565b6001600160a01b03918216928315610bb7575050600a54826bffffffffffffffffffffffff60a01b821617600a55167f1c87e2bbc4e5fa5d7f6f8c44d66cb241dff224b8602eb5435ca2076d2a5c6fc25f80a3005b906020606492519162461bcd60e51b8352820152601960248201527f46485041593a20636f6e74726f6c6c6572206973207a65726f000000000000006044820152fd5b82346101ec575f3660031901126101ec5760095490516001600160a01b039091168152602090f35b5090346101ec5760603660031901126101ec57610c3d610f42565b610c45610f58565b926044356001600160401b0381116101ec57610c64903690830161105c565b90610c6f338461119f565b156102a2575090602093610c856101c49361120e565b9161133b565b346101ec575f3660031901126101ec57610ca36111e2565b600980546001600160a01b031981169091555f906001600160a01b03167f8be0079c531659141344cd1fd0a4f28419497f9722a3daafe3b4186f6b6457e08280a3005b82346101ec5760203660031901126101ec576020906001600160a01b03610d0b610f42565b165f525f82526101c461ffff825f2054166008549061112c565b50346101ec57816003193601126101ec57610d3e610f42565b9060018060a01b03610d5581600a54163314611153565b821615610d6b576020836101c460243585611428565b6024905f84519163ec442f0560e01b8352820152fd5b5090346101ec575f3660031901126101ec57602091549051908152f35b82346101ec575f3660031901126101ec576020906008549051908152f35b82346101ec5760203660031901126101ec576020906001600160a01b03610de1610f42565b165f5260018252805f20549051908152f35b82346101ec575f3660031901126101ec5760209060ff600754169051908152f35b5090346101ec5760603660031901126101ec5761039e610f42565b82346101ec575f3660031901126101ec576020906101c461ffff600354166008549061112c565b905082346101ec575f3660031901126101ec575f906005549160018360011c9060018516948515610f14575b60209586841081146109d9578388528794939291879082156109b7575050600114610eb9575050610958929161094991038561102d565b9085925060055f527f036b6384b5eca791c62761152d0c79bb0604c104a5fb6f4eb0703f3154bb3db0915f925b828410610efc5750505082010181610949610937565b8054848a018601528895508794909301928101610ee6565b91607f1691610e82565b805180835260209291819084018484015e5f828201840152601f01601f1916010190565b600435906001600160a01b03821682036101ec57565b602435906001600160a01b03821682036101ec57565b346101ec5760403660031901126101ec57610f87610f42565b5060405163d411f9a960e01b8152600490fd5b346101ec575f3660031901126101ec57602060405160018152f35b608081019081106001600160401b03821117610fd057604052565b634e487b7160e01b5f52604160045260245ffd5b6001600160401b038111610fd057604052565b602081019081106001600160401b03821117610fd057604052565b606081019081106001600160401b03821117610fd057604052565b90601f801991011681019081106001600160401b03821117610fd057604052565b359060ff821682036101ec57565b91906080838203126101ec576040519261107584610fb5565b8381358152602061108781840161104e565b818301526110976040840161104e565b604083015260608301356001600160401b03938482116101ec57019084601f830112156101ec578135938411610fd057604051946110de601f8601601f191683018761102d565b8486528185840101116101ec5783606094825f940183880137850101520152565b9181601f840112156101ec578235916001600160401b0383116101ec57602083818601950101116101ec57565b8181029291811591840414171561113f57565b634e487b7160e01b5f52601160045260245ffd5b1561115a57565b60405162461bcd60e51b815260206004820152601f60248201527f46485041593a2063616c6c6572206973206e6f7420636f6e74726f6c6c6572006044820152606490fd5b6001600160a01b0390811691168181149182156111bb57505090565b9091505f52600260205260405f20905f5260205265ffffffffffff60405f20541642111590565b6009546001600160a01b031633036111f657565b60405163118cdaa760e01b8152336004820152602490fd5b60409060ff82820151166005810361131d5750606060ff9183519061123282610fb5565b5f825282602093835f86809601525f88820152015280516112b7606086858501511693015187519261126384610fb5565b8352848301938452868884016005815260608501928352895198899687966313fce3b160e11b88528c6004890152516044880152511660648601525116608484015251608060a484015260c4830190610f1e565b33602483015203815f73ea30c4b8b44078bbf8a6ef5b9f1ec1626c7848d95af192831561131457505f926112ea57505090565b90809250813d831161130d575b611301818361102d565b810103126101ec575190565b503d6112f7565b513d5f823e3d90fd5b6044908351906367cf307160e01b8252600482015260056024820152fd5b91906001600160a01b0380841615611378578116156113605761135d9261158e565b90565b60405163ec442f0560e01b81525f6004820152602490fd5b604051634b637e8f60e11b81525f6004820152602490fd5b604051632fd514cd60e11b815260048101919091526001600160a01b039190911660248201526020816044815f73ea30c4b8b44078bbf8a6ef5b9f1ec1626c7848d95af190811561141d575f916113e5575090565b90506020813d602011611415575b816114006020938361102d565b810103126101ec575180151581036101ec5790565b3d91506113f3565b6040513d5f823e3d90fd5b9190915f602080856003549461ffff9586611444818316611a06565b1661ffff198092161760035561145c83600454611a39565b6004556001600160a01b0382169687159187831461154257600354916114838184166119d4565b1691161760035561149683600454611931565b6004555b158061152e575b6114f5575b506114b13382611b3b565b6114bc600454611adc565b84846008546040519081527fdef6144e0f80e23ca465862f2f93a21f8526624729198aed904b46e005c943e4958691a3604051908152a3565b611528908686526001845261150d6040872054611adc565b86865260018452611522816040882054611b3b565b82611b3b565b5f6114a6565b5085855260018352604085205415156114a1565b888852600186526115578560408a2054611a39565b8989526001875260408920558786526115758260408a205416611a06565b918989528887526040892092169082541617905561149a565b6001600160a01b0380821680159594929390929091861591876117ed576115d190855f52600160205261062a60405f205482831561074557811561073557611bf2565b965b156117975760035461ffff6115e9818316611a06565b169061ffff19161760035561160087600454611a39565b6004555b82169384159182156117415760035461ffff6116218183166119d4565b169061ffff19161760035561163888600454611931565b6004555b8061172c575b6116f7575b5015806116e2575b6116a7575b5061165f3385611b3b565b61166a600454611adc565b602082826008546040519081527fdef6144e0f80e23ca465862f2f93a21f8526624729198aed904b46e005c943e4938491a36020604051868152a3565b6116dc90835f5260016020526116c060405f2054611adc565b835f5260016020526116d68160405f2054611b3b565b85611b3b565b5f611654565b50825f52600160205260405f2054151561164f565b61172690845f52600160205261171060405f2054611adc565b845f5260016020526107288160405f2054611b3b565b5f611647565b50835f52600160205260405f20541515611642565b855f5260016020526117578860405f2054611a39565b865f52600160205260405f20555f60205261ffff61177a8160405f205416611a06565b90875f525f60205260405f20911661ffff1982541617905561163c565b835f5260016020526117ad8760405f2054611931565b845f52600160205260405f20555f60205261ffff6117d08160405f2054166119d4565b90855f525f60205260405f20911661ffff19825416179055611604565b966115d3565b91908215611921575b8015611913575b8115611903575b6040519261181784610fb5565b60038452606036602086013761182c84611d62565b5261183683611d6f565b528151600210156118ef576060820152602061188f6040519261185884610ff7565b5f84526118a16040519485938493631888debd60e01b85526005600486015260046024860152608060448601526084850190611b8c565b83810360031901606485015290611b8c565b03815f73ea30c4b8b44078bbf8a6ef5b9f1ec1626c7848d95af190811561141d575f916118cc575090565b90506020813d6020116118e7575b816113016020938361102d565b3d91506118da565b634e487b7160e01b5f52603260045260245ffd5b905061190d611cf0565b9061180a565b5061191c611cf0565b611803565b915061192b611c69565b916117fc565b9081156119c4575b80156119b6575b6040519161194d83611012565b60028352604036602085013761196283611d62565b5261196c82611d6f565b52602061188f6040519261197f84610ff7565b5f84526118a16040519485938493631888debd60e01b85526005600486015260076024860152608060448601526084850190611b8c565b506119bf611cf0565b611940565b90506119ce611cf0565b90611939565b61ffff809116801580156119fc575b6119f4575f190190811161113f5790565b505061138790565b50600181146119e3565b61ffff80911680158015611a2e575b611a265760010190811161113f5790565b505061138990565b5061270f8114611a15565b908115611acc575b8015611abe575b60405191611a5583611012565b600283526040366020850137611a6a83611d62565b52611a7482611d6f565b52602061188f60405192611a8784610ff7565b5f84526118a16040519485938493631888debd60e01b85526005600486015260086024860152608060448601526084850190611b8c565b50611ac7611cf0565b611a48565b9050611ad6611cf0565b90611a41565b73ea30c4b8b44078bbf8a6ef5b9f1ec1626c7848d9803b156101ec57604051631974142760e21b815260048101929092523060248301525f908290818381604481015b03925af1801561141d57611b305750565b611b3990610fe4565b565b73ea30c4b8b44078bbf8a6ef5b9f1ec1626c7848d991823b156101ec57604051631974142760e21b815260048101929092526001600160a01b03166024820152905f90829081838160448101611b1f565b9081518082526020808093019301915f5b828110611bab575050505090565b835185529381019392810192600101611b9d565b9091611be461135d9360058452601a6020850152608060408501526080840190611b8c565b916060818403910152611b8c565b9060405191611c0083611012565b600283526040366020850137611c1583611d62565b52611c1f82611d6f565b52602061188f60405192611c3284610ff7565b5f84526118a16040519485938493631888debd60e01b85526005600486015260136024860152608060448601526084850190611b8c565b604051611c7581610ff7565b5f815260405190611c8582610fb5565b6003825260603660208401375f611c9b83611d62565b525f611ca683611d6f565b528151600210156118ef5761188f6020915f60608501526118a16040519485938493631888debd60e01b85525f6004860152601a6024860152608060448601526084850190611b8c565b604051611cfc81610ff7565b5f815260405190611d0c82610fb5565b6003825260603660208401375f611d2283611d62565b526005611d2e83611d6f565b528151600210156118ef575f6060830152604051631888debd60e01b815291602091839182916118a1919060048401611bbf565b8051156118ef5760200190565b8051600110156118ef576040019056fea26469706673582212203528423c2ce8ff359a80fadb07617693d118632410f4e87c317c6eb3f86731ec64736f6c63430008190033",
  "devdoc": {
    "errors": {
      "ERC20InvalidReceiver(address)": [
        {
          "details": "Indicates a failure with the token `receiver`. Used in transfers.",
          "params": {
            "receiver": "Address to which tokens are being transferred."
          }
        }
      ],
      "ERC20InvalidSender(address)": [
        {
          "details": "Indicates a failure with the token `sender`. Used in transfers.",
          "params": {
            "sender": "Address whose tokens are being transferred."
          }
        }
      ],
      "OwnableInvalidOwner(address)": [
        {
          "details": "The owner is not a valid owner account. (eg. `address(0)`)"
        }
      ],
      "OwnableUnauthorizedAccount(address)": [
        {
          "details": "The caller account is not authorized to perform an operation."
        }
      ]
    },
    "kind": "dev",
    "methods": {
      "confidentialBurnFromController(address,uint256)": {
        "params": {
          "from": "Address whose encrypted balance will be decreased.",
          "value": "Encrypted amount to burn."
        }
      },
      "confidentialMintFromController(address,uint256)": {
        "params": {
          "to": "Recipient address.",
          "value": "Encrypted amount as euint64 (CoFHE type)."
        }
      },
      "devMintPlain(address,uint64)": {
        "details": "DO NOT use in production deployments."
      },
      "owner()": {
        "details": "Returns the address of the current owner."
      },
      "renounceOwnership()": {
        "details": "Leaves the contract without owner. It will not be possible to call `onlyOwner` functions. Can only be called by the current owner. NOTE: Renouncing ownership will leave the contract without an owner, thereby disabling any functionality that is only available to the owner."
      },
      "transferOwnership(address)": {
        "details": "Transfers ownership of the contract to a new account (`newOwner`). Can only be called by the current owner."
      }
    },
    "title": "FHPAY - Confidential payment token for Private-Pay using Fhenix FHE",
    "version": 1
  },
  "userdoc": {
    "kind": "user",
    "methods": {
      "confidentialBurnFromController(address,uint256)": {
        "notice": "Confidential burn entrypoint for the controller."
      },
      "confidentialMintFromController(address,uint256)": {
        "notice": "Confidential mint entrypoint for the controller."
      },
      "controller()": {
        "notice": "Optional controller (payment manager / bridge) allowed to mint/burn."
      },
      "devMintPlain(address,uint64)": {
        "notice": "Unsafe cleartext mint for local development only."
      },
      "setController(address)": {
        "notice": "Set or update the controller contract that can mint/burn confidential amounts."
      }
    },
    "notice": "All balances are stored as encrypted euint64 values; public balances         are only indicators and MUST NOT be used for logic.",
    "version": 1
  },
  "storageLayout": {
    "storage": [
      {
        "astId": 22728,
        "contract": "contracts/FHPAY.sol:FHPAY",
        "label": "_indicatedBalances",
        "offset": 0,
        "slot": "0",
        "type": "t_mapping(t_address,t_uint16)"
      },
      {
        "astId": 22733,
        "contract": "contracts/FHPAY.sol:FHPAY",
        "label": "_encBalances",
        "offset": 0,
        "slot": "1",
        "type": "t_mapping(t_address,t_userDefinedValueType(euint64)26)"
      },
      {
        "astId": 22739,
        "contract": "contracts/FHPAY.sol:FHPAY",
        "label": "_operators",
        "offset": 0,
        "slot": "2",
        "type": "t_mapping(t_address,t_mapping(t_address,t_uint48))"
      },
      {
        "astId": 22741,
        "contract": "contracts/FHPAY.sol:FHPAY",
        "label": "_indicatedTotalSupply",
        "offset": 0,
        "slot": "3",
        "type": "t_uint16"
      },
      {
        "astId": 22744,
        "contract": "contracts/FHPAY.sol:FHPAY",
        "label": "_encTotalSupply",
        "offset": 0,
        "slot": "4",
        "type": "t_userDefinedValueType(euint64)26"
      },
      {
        "astId": 22746,
        "contract": "contracts/FHPAY.sol:FHPAY",
        "label": "_name",
        "offset": 0,
        "slot": "5",
        "type": "t_string_storage"
      },
      {
        "astId": 22748,
        "contract": "contracts/FHPAY.sol:FHPAY",
        "label": "_symbol",
        "offset": 0,
        "slot": "6",
        "type": "t_string_storage"
      },
      {
        "astId": 22750,
        "contract": "contracts/FHPAY.sol:FHPAY",
        "label": "_decimals",
        "offset": 0,
        "slot": "7",
        "type": "t_uint8"
      },
      {
        "astId": 22752,
        "contract": "contracts/FHPAY.sol:FHPAY",
        "label": "_indicatorTick",
        "offset": 0,
        "slot": "8",
        "type": "t_uint256"
      },
      {
        "astId": 17420,
        "contract": "contracts/FHPAY.sol:FHPAY",
        "label": "_owner",
        "offset": 0,
        "slot": "9",
        "type": "t_address"
      },
      {
        "astId": 23957,
        "contract": "contracts/FHPAY.sol:FHPAY",
        "label": "controller",
        "offset": 0,
        "slot": "10",
        "type": "t_address"
      }
    ],
    "types": {
      "t_address": {
        "encoding": "inplace",
        "label": "address",
        "numberOfBytes": "20"
      },
      "t_mapping(t_address,t_mapping(t_address,t_uint48))": {
        "encoding": "mapping",
        "key": "t_address",
        "label": "mapping(address => mapping(address => uint48))",
        "numberOfBytes": "32",
        "value": "t_mapping(t_address,t_uint48)"
      },
      "t_mapping(t_address,t_uint16)": {
        "encoding": "mapping",
        "key": "t_address",
        "label": "mapping(address => uint16)",
        "numberOfBytes": "32",
        "value": "t_uint16"
      },
      "t_mapping(t_address,t_uint48)": {
        "encoding": "mapping",
        "key": "t_address",
        "label": "mapping(address => uint48)",
        "numberOfBytes": "32",
        "value": "t_uint48"
      },
      "t_mapping(t_address,t_userDefinedValueType(euint64)26)": {
        "encoding": "mapping",
        "key": "t_address",
        "label": "mapping(address => euint64)",
        "numberOfBytes": "32",
        "value": "t_userDefinedValueType(euint64)26"
      },
      "t_string_storage": {
        "encoding": "bytes",
        "label": "string",
        "numberOfBytes": "32"
      },
      "t_uint16": {
        "encoding": "inplace",
        "label": "uint16",
        "numberOfBytes": "2"
      },
      "t_uint256": {
        "encoding": "inplace",
        "label": "uint256",
        "numberOfBytes": "32"
      },
      "t_uint48": {
        "encoding": "inplace",
        "label": "uint48",
        "numberOfBytes": "6"
      },
      "t_uint8": {
        "encoding": "inplace",
        "label": "uint8",
        "numberOfBytes": "1"
      },
      "t_userDefinedValueType(euint64)26": {
        "encoding": "inplace",
        "label": "euint64",
        "numberOfBytes": "32"
      }
    }
  }
}